:020000041FFFDC
:1000000000000000C13FFF1F704CFF1F6E4CFF1F20
:10001000A44DFF1F000000000000000000000000D1
:1000200000000000000000000000000000000000D0
:1000300000000000000000000000000000000000C0
:1000400000000000000000000000000000000000B0
:1000500000000000000000000000000000000000A0
:100060000000000000000000000000000000000090
:100070000000000000000000000000000000000080
:100080000000000000000000000000000000000070
:100090000000000000000000000000000000000060
:1000A0000000000000000000000000000000000050
:1000B0000000000000000000000000000000000040
:1000C0000000000000000000000000000000000030
:1000D0000000000000000000000000000000000020
:1000E0000000000000000000000000000000000010
:1000F0000000000000000000000000000000000000
:1001000000000000000000000000000000000000EF
:1001100000000000000000000000000000000000DF
:1001200000000000000000000000000000000000CF
:1001300000000000000000000000000000000000BF
:1001400000000000000000000000000000000000AF
:10015000000000000000000000000000000000009F
:10016000000000000000000000000000000000008F
:10017000000000000000000000000000000000007F
:10018000000000000000000000000000000000006F
:10019000E937FF1F8138FF1FF943FF1F00000000F0
:1001A000000000000000000000000000000000004F
:1001B000000000000000000000000000000000003F
:1001C000000000000000000000000000000000002F
:1001D000000000000000000000000000000000001F
:1001E000000000000000000000000000000000000F
:1001F00000000000000000000000000000000000FF
:1002000000000000000000000000000000000000EE
:1002100000000000000000000000000000000000DE
:1002200000000000000000000000000000000000CE
:1002300000000000000000000000000000000000BE
:1002400000000000000000000000000000000000AE
:10025000000000000000000000000000000000009E
:10026000000000000000000000000000000000008E
:10027000000000000000000000000000000000007E
:10028000000000000000000000000000000000006E
:10029000000000000000000000000000000000005E
:1002A000000000000000000000000000000000004E
:1002B000000000000000000000000000000000003E
:1002C000000000000000000000000000000000002E
:1002D000000000000000000000000000000000001E
:1002E000000000000000000000000000000000000E
:1002F00000000000000000000000000000000000FE
:1003000000000000000000000000000000000000ED
:1003100000000000000000000000000000000000DD
:1003200000000000000000000000000000000000CD
:1003300000000000000000000000000000000000BD
:1003400000000000000000000000000000000000AD
:10035000000000000000000000000000000000009D
:10036000000000000000000000000000000000008D
:100370000D19FF1F00000000000000000000000039
:10038000000000000000000000000000000000006D
:10039000000000000000000000000000000000005D
:1003A0000000000000000000000000005D1EFF1FB4
:1003B000000000000000000000000000000000003D
:1003C000000000000000000000000000000000002D
:1003D000000000000000000000000000000000001D
:1003E000000000000000000000000000000000000D
:1003F00000000000000000000000000000000000FD
:0C04000001FF01FF01FF01FF910000005F
:020000041FFFDC
:1018380000FBFF1F3D19FF1F81840000F1280000F5
:101848000000000000000000000000000000000090
:101858000000000000000000000000004919FF1F00
:101868000000000000000000CD8400004D19FF1F9B
:101878004F19FF1F4F19FF1F4F19FF1F4F19FF1F48
:101888004F19FF1F4F19FF1F4F19FF1F4F19FF1F38
:101898004F19FF1F4F19FF1F4F19FF1F4F19FF1F28
:1018A8004F19FF1F4F19FF1F4F19FF1F4F19FF1F18
:1018B8004F19FF1F4F19FF1F4F19FF1F4F19FF1F08
:1018C8000000000000000000000000000000000010
:1018D8000000000000000000000000000000000000
:1018E8004F19FF1F000000004F19FF1F4F19FF1F5E
:1018F8000348854600F02CF800480047753FFF1F55
:1019080000FBFF1F09484838694601600430F0C0F1
:1019180044464D4656465F46F0C030BCF0BCF0C069
:10192800F0BCF0C044380249084700000004FF1F1B
:101938001929FF1F0448804704480047FEE7FEE7CF
:10194800FEE7FEE7FEE7FEE7D527FF1FF918FF1FB2
:10195800064C0125064E05E0E36807CC2B430C3CFA
:1019680098471034B442F7D3FFF7C6FF344DFF1F32
:10197800944DFF1F30B58C180278401C13071B0FBD
:1019880001D10378401C120906D10278401C03E0FB
:1019980005780D70401C491C5B1EF9D101E00B70E5
:1019A800491C521EFBD1A142E6D3002030BD0000E5
:1019B80003B40148019001BD75A9000003B40148B2
:1019C800019001BD9DA9000003B40148019001BD2B
:1019D800D94F010003B40148019001BDF9A60000E8
:1019E80003B40148019001BDA1AF000003B4014850
:1019F800019001BDADAE000003B40148019001BDE6
:101A0800456B010003B40148019001BD0189000044
:101A180003B40148019001BDC53F000003B401486B
:101A2800019001BDE94C010003B40148019001BDDA
:101A3800C95C010003B40148019001BDDD3F00000D
:101A480003B40148019001BD8944000003B4014872
:101A5800019001BD2144000003B40148019001BD7B
:101A6800750F000003B40148019001BD190701007A
:101A780003B40148019001BDBD0B010003B4014846
:101A8800019001BDDD0C010003B40148019001BDC6
:101A9800DD0A010003B40148019001BD01340100D1
:101AA80003B40148019001BD0934010003B40148A1
:101AB800019001BD0534010003B40148019001BD46
:101AC800F535010003B40148019001BDF935010065
:101AD80003B40148019001BDE917010003B40148AE
:101AE800019001BD6137010003B40148019001BDB7
:101AF80001D7000003B40148019001BD6DF6000054
:101B080003B40148019001BD7912010003B40148F2
:101B1800019001BD4DF9000003B40148019001BDD9
:101B2800C1F7000003B40148019001BD116E000027
:101B380003B40148019001BD8D82000003B401483F
:101B4800019001BDE1AC000003B40148019001BD62
:101B5800E53A010003B40148019001BD496D010057
:101B680003B40148019001BD3D71010003B401486F
:101B7800019001BD156B010003B40148019001BD3E
:101B8800016C010003B40148019001BDBD5C010076
:101B980003B40148019001BDCD4C010003B40148D4
:101BA800019001BDA96F010003B40148019001BD76
:101BB8004D74010003B40148019001BDB30E00004B
:101BC80003B40148019001BD810E000003B401482F
:101BD800019001BD21A9000003B40148019001BD95
:101BE8004550000003B40148019001BDC56D0100D6
:101BF80003B40148019001BD51B8000003B4014885
:101C0800019001BD85C1000003B40148019001BDE8
:101C1800E9D4000003B40148019001BDE90B0100BB
:101C280003B40148019001BD090E000003B4014846
:101C3800019001BD6D0B010003B40148019001BD85
:101C4800C115010003B40148019001BDCD0C01008C
:101C580003B40148019001BD71B0000003B401480C
:101C6800019001BDD9B0000003B40148019001BD45
:101C78005976010003B40148019001BD53B9000031
:101C880003B40148019001BDED6B010003B40148A4
:101C9800019001BDC9A9000003B40148019001BD2C
:101CA800EDA5000003B40148019001BD2D1101000C
:101CB80003B40148019001BD8914010003B401482F
:101CC800019001BD6189000003B40148019001BD84
:101CD800D70E000003B40148019001BD810E000039
:101CE80003B40148019001BDD544010003B4014883
:101CF800019001BD2D6C010003B40148019001BDA4
:101D08007997000003B40148019001BD8552010094
:101D180003B40148019001BD6911010003B40148F1
:101D2800019001BD8512010003B40148019001BD75
:101D38008D11010003B40148019001BDE5120100B5
:101D480003B40148019001BDF90D010070B54E4A78
:101D58008AB0012800D14D4A43014D486D461C18F0
:101D6800207E00280AD084208058C3B2002002E0D8
:101D780016782E54401C9842FADB03E0107D0123AC
:101D880010782870E269002A04D0297506952B7707
:101D980005A890470AB070BDFEB5044642013C480C
:101DA800394D1318805C191D002829D0187E002889
:101DB80026D0987E002823D00878022820D1888849
:101DC8004A888E68801A82B2102A01D9102201E04E
:101DD800002A02D0012C16D01CE001200870002037
:101DE80048808880D969002905D02A4B6D460DCBDB
:101DF8000DC568468847002C03D0192001F008FD5E
:101E0800FEBD0820FAE7214D04E04888431C4B80BA
:101E1800305C28701046521E92B20028F5D1FEBDE3
:101E28001A4880680007000F062812D006DC02282E
:101E38000AD004280DD10121012087E7072805D001
:101E48000C2806D10221F7E70120A5E70F4840300A
:101E5800C06B70470C4880680007000F062812D036
:101E680006DC02280AD004280DD1012100206DE7E4
:101E7800072805D00C2806D10221F7E700208BE7B8
:101E880001484030C06B704700400040009000405F
:101E9800585EFF1F044DFF1F10B5FFF789FD0A4864
:101EA8000468094A41178032116008490160FFF748
:101EB80085FD204610BD10B50446FFF779FD0248A0
:101EC8000460FFF77BFD10BD00E100E0100010008A
:101ED80010B50D497620C860FFF776FD10BD0446A1
:101EE800FFF766FD0949C86940229043C86120464A
:101EF800FFF770FD01F016FC04490420C0310860AA
:101F08000120FFF76DFDFEE70020004000F00040D3
:101F1800F8B5D349D14A002004464A608300401CE2
:101F2800D450FF28FADD4868CE4A014680318A60DD
:101F38006E22C262CC4A1278002A01D07F22C26285
:101F48000A220265C94A13788363C94BC3611578AD
:101F58001023022D08D01578012D05D01578032DF2
:101F680002D01578042D00D10362C24D45611925B0
:101F7800AD0185613725CD6036272826C76308253A
:101F8800466405644F6032270F603B27CF634127C3
:101F9800CF6439274031E0C132274F6002274F61B3
:101FA80042270831E0C11E274F60CE608D600526AC
:101FB8004E6142260E615A2660390E614D613C25FC
:101FC8008D61AF25ED000560AB4D05631578022DD9
:101FD80009D01578012D08D01578032D07D015786C
:101FE800042D06D007E0152504E0436003E00E2524
:101FF80000E00C254560FF252D358560C560FF256F
:10200800F53505619D4D85647D25ED009C4ECD67B8
:10201800C66445629B4D85627325C5650625456581
:102028008565C51D0826F93502272E6047664B27AA
:10203800FF0087660927C766934F07674667BE1084
:102048008467C667914F8E4E3E601678022E09D07F
:102058001678012E0AD01678032E0BD01278042A8F
:102068000CD00EE01A22CA61212205E01422CA61AE
:10207800182201E01322CB610A6202E00E220B62F1
:10208800CA617E4A8A627D22D2008A6764224A62D5
:102098000522CA6202220A63C8228C634A63382175
:1020A80069607B4929647B49A9614B21C900E961C1
:1020B8007349FF30643929627D2109016962EC6640
:1020C8001E212C67A9667049A965E96589102966EA
:1020D800696469677049A9677049714A8130E9671D
:1020E800026082604160FF21F531C16001616E4884
:1020F8006C495A4A81606D49803A11616A496C4A53
:1021080080318A626B4ACA626B4A82616B4AC262D8
:102118006B4A02636B4A64484038C2636A4ACA61C0
:102128006A49816360496A48403188616A496948F7
:1021380088605D48694A80384260694A4263694AF2
:102148000A626949816058496848C039C860FFF720
:102158004DFC0120FFF750FCF8BDF3B50746644875
:1021680081B0C169634A1140FF310931C16100265C
:1021780013E000252C461120FFF744FC5C48406A18
:102188008007800F610088402843641CE4B205463C
:10219800102CF0D301C7761CF6B202988642E8D319
:1021A800FEBD10B52E4C607800280AD10421524893
:1021B800FFF7D3FF504804211030FFF7CEFF01206E
:1021C800607010BDF0B500248BB00D46064610298E
:1021D80002D901200BB0F0BDFFF7E3FF464900200C
:1021E8000A5C401C1419C0B21028F9D3002C03D083
:1021F800102D03D90B20EDE70E20EBE73F483E4CAE
:102208000023006802A91034E25CC75C7A40CA5413
:102218005B1CDBB2102BF7D306AA3748FFF7F8FB95
:10222800102D00D910252A4606A93046FFF7F6FBDF
:10223800FFF7FAFB216840182060FFF7F5FB61689B
:1022480040186060FFF7F0FBA1684018A060FFF736
:10225800EBFBE1684018E0600020BBE70004FF1FCB
:10226800E04DFF1F00FBFF1F944DFF1F4A0AFF1F91
:102278003A07000080C3C9019A02000050C3000059
:10228800280A00006A180000204E0000F009FF1F0D
:102298000040001168100000DC05000040420F00FB
:1022A80010270000593DFF1F0001FF1FFD25FF1FDC
:1022B8007940FF1F5143FF1F0923FF1F9D24FF1F64
:1022C8002523FF1FED2DFF1FF94AFF1F1D49FF1F83
:1022D8009D3AFF1F7D27FF1F0002FF1FE53AFF1FE2
:1022E800AD3BFF1FF13AFF1FA13AFF1FAD27FF1FAC
:1022F80040F0004000FEFEFF105FFF1F044EFF1F6E
:1023080070B50124A407A36810252B43A360FFF729
:1023180091FBA068A843A06070BD0000FFB5064609
:1023280001208007816881B01D4610221143816019
:10233800554F002038603046D730FFF781FB9D208D
:10234800800034468059FF36CA3401360028306888
:1023580022462CD00121FFF779FB4B4F2078F863F8
:10236800641C2046FFF778FB00BA000AE1780002F7
:102378000843B863241D2046FFF76EFB00BA000A25
:10238800E178000208437863241D2046FFF764FBC8
:1023980000BA000AE17800020843386303980299FA
:1023A80000020843F860039F00243F1D0EE000214F
:1023B800D1E72819401CFFF74FFB0102285D0143B4
:1023C800324820180160241DA4B23F1F042FF0DA00
:1023D800032F04D0022F08D0012F0CD011E02819A8
:1023E800FFF73AFB0102090A06E0291948780A783A
:1023F8000102114300E0295D244820180160241DD2
:10240800A4B20021214F02E0E0190160241DFF2C35
:10241800FADD1D481E4A42600F2202610122026055
:102428004269002AFCD04269930701D4520708D4B4
:1024380001208007826810218A438260002005B04D
:10244800F0BD01600020039A11E0C1190968295400
:10245800401C80B20B0A2B54401C0B0C80B22B542E
:10246800401C80B2090E2954401C80B2121F002A59
:10247800EBDC3068401C3060012080078268102146
:102488008A4382600120DAE700000440000104402A
:10249800080F0000FFB5054601208007816881B05C
:1024A8001E46102211438160504F00203860284694
:1024B800D730FFF7C5FA9D2080002C464059CA3412
:1024C80080350028E86F22462BD00021FFF7BEFA9E
:1024D800464F2078F863641C2046FFF7BDFA00BA1F
:1024E800000AE17800020843B863241D2046FFF77C
:1024F800B3FA00BA000AE178000208437863241DA1
:102508002046FFF7A9FA00BA000AE178000208435A
:1025180038630398029900020843F8600024039F77
:102528000EE00121D2E73019401CFFF795FA0102AD
:10253800305D01432E4820180160241DA4B23F1FBE
:10254800042FF0DA032F04D0022F08D0012F0FD068
:1025580014E03019FFF780FA0102090A09E031197D
:10256800487809780002084321496118086003E0A7
:10257800315D1F4820180160241DA4B200211C4BA6
:1025880002E0E0180160241DFF2CFADD0F22174835
:10259800120242600F220261012202604269002A8F
:1025A800FCD00160039A0020121D11E0C1180968CF
:1025B8003154401C80B20C0A3454401C0C0C80B2BC
:1025C8003454401C80B2090E3154401C80B2121F92
:1025D800002AEBDCE86F401CE8670120800782686E
:1025E80010218A43826005B0F0BD0000000004405D
:1025F80000010440F8B5FFF717FA564908600420AF
:10260800FFF730FAFFF734FA0646C00715D05249EB
:102618000020086051480078012811D0032813D001
:10262800042815D0022817D0052819D0FFF726FA54
:102638004B4F044601281AD01EE0FFF725FAF8BDD3
:102648003046FFF727FA0EE03046FFF729FA0AE08E
:102658003046FFF72BFA06E03046FFF72DFA02E086
:102668003046FFF72FFA40B20128E8D04FE038781B
:1026780005280BD0062809D03A483B4D0078022897
:1026880008D0052806D0022C0ED005E0304601F00F
:1026980031FC3CE0022C02D0012C11D014E0A87BC4
:1026A800002805D0022803D03878052804D00BE08C
:1026B800304601F037FC15E0304601F027FC11E008
:1026C800012807D0062809D03046FFF701FA022C66
:1026D80008D01CE0304601F03DFC18E0304601F01F
:1026E8002DFC14E03878012811D170050FD4687BCF
:1026F800C10701D0252004E0800701D5262000E08D
:102708002720297D814202D93220FFF7E7F9154CAD
:102718002078042804D003280ED0072811D014E00C
:10272800FFF7E2F9002810D0FFF7E4F95820FFF787
:10273800E7F90220207008E00C48807CFFF7E6F9F2
:1027480003E00B48807BFFF7E7F90320FFF78AF9DE
:10275800F8BD00009C09FF1F9809FF1F9009FF1F83
:102768001C09FF1F2309FF1FA60BFF1FBC0BFF1F20
:10277800D40BFF1F10B5FB2908D8084B9A4205D87F
:102788001B2903D3FF2349339A4201D2302010BDBD
:10279800034B19825A82FFF7C5F910BD480800009B
:1027A8008410FF1F10B5FFF7C3F9024900204880C5
:1027B80010BD0000E04DFF1FC106C90E0120884072
:1027C800014908607047000000E100E00249014843
:1027D8000860704740787D01DC4DFF1F002805DB4D
:1027E800C106C90E012088400149086070470000F1
:1027F80000E100E08307FF22DB0E9A408907090EFB
:102808009940002808DB830809489B001B181868B2
:1028180090430843186070470007000F0838830882
:1028280004489B001B18D86990430843D861704737
:1028380000E400E000ED00E08307FF22DB0E9A4091
:102848008907090E9940002808DB830809489B007E
:102858001B18186890430843186070470007000F5A
:102868000838830804489B001B18D869904308431C
:10287800D861704700E400E000ED00E08307FF2224
:10288800DB0E9A408907090E9940002808DB830867
:1028980009489B001B181868904308431860704744
:1028A8000007000F0838830804489B001B18D869E4
:1028B80090430843D861704700E400E000ED00E071
:1028C80002E008C8121F08C1002AFAD170477047F1
:1028D800002001E001C1121F002AFBD1704700004F
:1028E8000248C069002800D0004770474003FF1F16
:1028F8001CB569460120FFF721F901200090034823
:10290800019000F0C3FA01201CBD0000BB0B0000C1
:10291800044629A0FFF718F92DA0616AFFF714F9FA
:102928002FA0A16AFFF710F931A0E16AFFF70CF9AF
:1029380033A0216BFFF708F935A06168FFF704F9A8
:1029480037A0A168FFF700F939A0E168FFF7FCF8A4
:102958003BA02169FFF7F8F83DA06169FFF7F4F89B
:102968003FA0A169FFF7F0F841A0E169FFF7ECF893
:1029780043A0216AFFF7E8F845A0616BFFF7E4F888
:1029880047A02168FFF7E0F849A0A16BFFF7DCF842
:102998004BA0E16BFFF7D8F84DA0216CFFF7D4F8F6
:1029A8004F4841684FA0FFF7CFF852480068002809
:1029B80000D08047FEE700005B48617264206661D2
:1029C800756C742068616E646C65725D0A00000045
:1029D80052302020203D203078253038780A0000F9
:1029E80052312020203D203078253038780A0000E8
:1029F80052322020203D203078253038780A0000D7
:102A080052332020203D203078253038780A0000C5
:102A180052342020203D203078253038780A0000B4
:102A280052352020203D203078253038780A0000A3
:102A380052362020203D203078253038780A000092
:102A480052372020203D203078253038780A000081
:102A580052382020203D203078253038780A000070
:102A680052392020203D203078253038780A00005F
:102A780052313020203D203078253038780A000047
:102A880052313120203D203078253038780A000036
:102A980052313220203D203078253038780A000025
:102AA80053502020203D203078253038780A000007
:102AB8004C522020203D203078253038780A0000FC
:102AC80050432020203D203078253038780A0000F7
:102AD80050535220203D203078253038780A0000A5
:102AE80000ED00E049435352203D2030782530382E
:102AF800780A0000A04DFF1F10B500F0BBF9FFF7E2
:102B0800F7FE002802D00248804710BDFEE700000B
:102B1800E1A20000F0B585B005460291002927D052
:102B2800154F0024144E803F0023009402221946BA
:102B380005200194FFF70EF830698007FCD42020A7
:102B48000090411E009101D30846FAE73868002832
:102B5800FCDA012103A8FFF703F86846007B284048
:102B680007D00520FEF74EFF0298401E0290DBD1E9
:102B7800112005B0F0BD000080C80040F8B54D48F0
:102B88004068C043000603D53C20FEF73BFFF8BD74
:102B9800FEF7ECFF474D0746803D28680121890470
:102BA80008432860E869444908402830E861032060
:102BB800FEF728FF686AC603F60B0320FEF722FF1C
:102BC800686AC403E40B0320FEF71CFF686AC503A8
:102BD800ED0BA64201D3204600E03046A84200D3C0
:102BE8002846A64201D3314600E02146A94200D238
:102BF8002946324AB218C32A26D2304AD2439442CE
:102C080022D92F4B9C421FD295421DD99D421BD2DF
:102C1800081A132818D2274841680C2291434160AA
:102C28004168FF221202914341601420FEF7EAFE38
:102C380020488038416AC269C903C90B08239A43EE
:102C4800C26120480161F8BD26462C460320FEF7E4
:102C5800D9FE18488038406AC503ED0BFEF786FF99
:102C6800B84201D3C01B01E0C01B401E1649884270
:102C7800AFD310484168090A00914268FF21090250
:102C88008A430099491C0906090C0A4342604168B5
:102C98000C229143091D41600020FEF76DFF0B488F
:102CA800009988400A49884200DB0846FFF717F96F
:102CB8008FE70000C0F0004000FEFEFF91FCFFFF20
:102CC80032040000E04DFF1FE40C0000E880000023
:102CD80060361E00F8B53D4840683C4C0006803C14
:102CE8008021002806DB6068084360600320FEF747
:102CF80089FEF8BD364D0020A861206801229204A3
:102D080010432060334F60688021084360600320CF
:102D1800FEF778FEA869401CA861606801210904D3
:102D2800084360600026E0692B4938404018E0619C
:102D38000320FEF767FE606AE169C003C00B082242
:102D48009143E161296906225143814201D3091A5D
:102D580000E0411A3C2909D2E269012109048A43A9
:102D6800E26162688A4362606861F8BD761CF6B207
:102D7800052ED8D3E169012000048143E16161682F
:102D880081436160A8692E46052807D3BFF34F8F9A
:102D980013491248C860BFF34F8FFEE7606880216F
:102DA800884360600320FEF72DFEE0693840283034
:102DB800E0610320FEF726FE606AC003C00B3061A5
:102DC800E16908208143E1619DE70000C0F000400F
:102DD800E04DFF1F00FEFEFF280001000400FA0579
:102DE80000ED00E0F8B504460120FEF70BFEFEF703
:102DF800C9FE1849184A0860966A184B1E60184B95
:102E0800DF6A184D2D68AF4202D2DB6AEB1A00E088
:102E18000023154D2B603319D362536A2924E40328
:102E280023435362114A1278002A0FD0104A1378AC
:102E3800022B07D01378012B06D01278032A06D06C
:102E4800C01E02E00F3800E008380860F8BD401FD7
:102E5800FBE70000E408FF1F00F00040340AFF1FF2
:102E680000100040180AFF1F1C0AFF1F1C09FF1F43
:102E78004A0AFF1F03490020486103490860486067
:102E88007047000040F0004040F1004070B58AB043
:102E980000241E4D049405942878012806D004A91E
:102EA8000120FEF74BFE002802D000200AB070BDBA
:102EB8000498009005980190154881680291C068AF
:102EC8001349039006AA10316846FEF7B3FD104E69
:102ED80010222036314606A8FEF75AFE002811D0E7
:102EE800012028700B4A31466846FEF7A3FD04947A
:102EF8000020694605948200401C8C500428FADBA7
:102F08000120D3E7FF202870CFE70000084EFF1FFD
:102F180000290011305FFF1F10B50448C16B034A38
:102F280040321068D06000F073FB10BD0080004094
:102F380038B5FEF73DFD01229207936A08240094F4
:102F4800002B01D1012090620A48022101600099FA
:102F58004D1E0095FBD2032101600094641E00946D
:102F6800FCD200210160002B00D19162FEF726FD02
:102F780038BD000000C0004001229207012120282E
:102F880004D2936881400B4393607047402805D270
:102F98005369203881400B43536170476028FCD245
:102FA800136A403881400B4313627047F1B584B00F
:102FB800FEF772FF0124A4070190A76AFEF7F8FC48
:102FC80025490220086060620120A062FEF7F6FC35
:102FD800224D28698007FCD420200090411E0091D2
:102FE80001D30846FAE71D4E803E30680028FCDA17
:102FF8001B490120FFF78EFD002817D10498FEF722
:10300800CDFDC0B2029028698007FCD42020009032
:10301800411E009101D30846FAE730680028FCDA1F
:103028000F490320FFF776FD002802D0112005B0D4
:10303800F0BDFEF7BDFC084900200860032161626D
:10304800A062FEF7BBFC002F01D1FFF771FF0198CA
:10305800FEF731FF0298EAE700C0004080C8004050
:10306800FFFFFF07F7B584B0FEF716FF0190FEF7E4
:103078009FFC244F02203860440760620120A06250
:10308800FEF79CFC204D28698007FCD42020009086
:10309800411E009101D30846FAE71B4E803E306876
:1030A8000028FCDA19490120FFF734FD002818D15F
:1030B80004AB07CBFEF778FDC0B202902869800701
:1030C800FCD420200090411E009101D30846FAE765
:1030D80030680028FCDA0D490120FFF71BFD0028A5
:1030E80002D0112007B0F0BDFEF762FC0020386066
:1030F80003216162A062FEF761FC0198FEF7DBFE26
:103108000298EFE700C0004080C80040FFFFFF07BB
:10311800F0B52C4C89B02078012818D0FEF7BCFEF9
:10312800294D079028698007FCD42027009700982C
:10313800411E0091FBD2244E803E30680028FCDA04
:1031480022490120FFF7E6FC002821D102E00020F7
:1031580009B0F0BD0020009003460146019003220B
:103168009F20FEF7F7FC032102A8FEF7F9FC286967
:103178008007FCD400970098411E0091FBD230686C
:103188000028FCDA11490120FFF7C4FC002801D00F
:103198001120DDE70798FEF78EFE02980C4A000220
:1031A800000A60606846817A0123084611380528BC
:1031B80002D81846884001E00120C004A060906150
:1031C8002370C4E7B84DFF1F80C80040FFFFFF070A
:1031D8008008FF1F30B5C21F0A2A01D3062030BD60
:1031E8000124074D9440002905D0002100F0A4F8DF
:1031F8002868204301E02868A0432860002030BDEB
:1032080000380040054B01228240D868002901D0CF
:10321800104300E09043D860704700000038004039
:1032280010B5114C2078002801D0072010BDFF21CF
:103238002D310D48FEF7BEFC012020700B490020FF
:10324800086348630A490862486202211020FFF7B0
:10325800F3FA1020FFF7C2FA064A07490D2000F0DA
:10326800A1FA002010BD00002C5DFF1F0080004067
:1032780080F000409134FF1F0534FF1F10B5172858
:1032880001D3052010BD0C4B9C6B012282401046D7
:1032980020439863586B90435863DC6B012907D02F
:1032A80020469043D863186B02431A63002010BD70
:1032B80010462043F6E7000000800040054B01223D
:1032C800801E82405869002901D0104300E09043D5
:1032D800586170470038004070B5044614480E46DF
:1032E8000519002902D16878012808D00021204654
:1032F800FFF788FF022C04D0032C02D005E007203A
:1033080070BD01212046FFF7D9FF00212046FFF7B5
:1033180061FF08490120A0404A68012E05D0824378
:103328004A6002206870002070BD02434A60FAE7D4
:103338002C5DFF1F0080004070B5420083180D4AC5
:103348009C18A5786478D65C641B0122641CA24092
:10335800521EAA40084BA940132806D2B000C01834
:10336800836893430B43836070BD58699043084357
:10337800586170BD8F4CFF1F00F0004007494A6834
:10338800012383401A4201D0096802E00349403111
:103398000969C140C807C00F70470000008000409D
:1033A80070B5154C45002E1976780123114AB340A3
:1033B80000290ED0142809D0152807D0162805D0C2
:1033C800605780008018816819430DE050691843E0
:1033D8000EE014280AD0152808D0162806D0605701
:1033E8008000801881689943816070BD5069984356
:1033F800506170BD00F00040D44CFF1F70B5104DF7
:1034080000242E197078012803D1E0B20121FFF7BA
:10341800C7FF707802280ED1E0B2FFF7AFFF012195
:103428004140E0B200F074F8E0B2FFF7A7FF0C21CA
:10343800614349194876641C172CE2DB70BD000013
:103448002C5DFF1F10B50F4C0D4A0123245C142876
:1034580009D2106A002902D0A340184301E0A34012
:103468009843106210BD506A002903D0203CA34045
:10347800184302E0203CA3409843506210BD00006E
:1034880080F00040784CFF1F70B502211020FFF734
:10349800D3F91020FFF7A2F900241C4D07E0022CF5
:1034A80001D0032C03D1E0B20121FFF707FF28194F
:1034B800407801280BD1E0B2FFF760FFE2B2014685
:1034C800104600F061F8E0B20021FFF769FF0C2018
:1034D80060434019007E002814D0E0B200F066F87E
:1034E800E6B23046FFF74AFF002801D0012100E08C
:1034F80000210C2272435219527E824202D0304679
:1035080000F0BAF8641C172CC9DB70BD2C5DFF1FD6
:10351800F8B542008318184AD55C9A189278521E5A
:10352800D4B2164A12185278022A21D1144EB76B17
:103538000122134683401F43B763124B13280ED250
:10354800002906D0A900C9188B68A24093438B6054
:103558000BE0A900C9188B68A2401343F7E70029BC
:10356800596906D0A240914359610121FFF76AFFCA
:10357800F8BDA2401143F7E78F4CFF1F2C5DFF1FDA
:103588000080004000F00040012200B5064B824058
:103598000029196801D0114300E091431960012105
:1035A800FFF79AFE00BD00000080004070B5044699
:1035B800164821460C2251430D186A680026002A35
:1035C80002D1AA68002A1CD0104B0222183B1B19F2
:1035D8005A700122425400212046FFF77DFE686898
:1035E800002808D0A86800280DD02046FFF7C6FE9E
:1035F800002808D0002631462046FFF73FFE00206D
:1036080070BD122070BD0126F5E70000445DFF1F64
:10361800F3B5184E002481B0074601252846A0407E
:10362800384223D00299084000D001200090E0B22F
:10363800009900F021F80C206043801941688068E7
:1036480000290ED0002807D00098002802D00021B9
:10365800E0B203E00121FBE7E0B20121FFF70EFE33
:1036680004E0002802D0E0B20021F7E7641C172C20
:10367800D4DBFEBD445DFF1F074A0C2343439B1860
:103688005A68002A01D0012904D09A68002A02D079
:10369800002900D110477047445DFF1F30B58DB039
:1036A800302217496846FEF78BFA00246D46600001
:1036B80041194978285CFFF73FFE641CE4B2172CD7
:1036C800F5D310484169C2009143052212048918B4
:1036D8004161416901225206114341614169032256
:1036E800520591430122520589184161072000F0D3
:1036F8000DF800F021F800F007F80DB030BD00001B
:10370800404CFF1F00F000400F2070470449420959
:1037180003D00020C86006207047C86000207047AA
:10372800C44DFF1F0348C1691F2252049143C16160
:103738000020704700F000400548C1691F2252046C
:103748009143044A928952041143C1610020704791
:1037580000F00040C44DFF1F10B578210C48FEF75B
:1037680029FA0C480078012803D0022804D004283C
:1037780004D1FEF72BFA01E0FEF738F90648007885
:10378800C00702D0064905480863002010BD0000A4
:10379800985EFF1FC44DFF1F00200040D91EFF1F69
:1037A800C000FF1F30B50D4C00230C255D43655D3F
:1037B800854201D1072030BD002D04D05B1C0A2BA7
:1037C800F3DB032030BD0C256B431B19F9D0002413
:1037D8005C7018709A602046596030BD985EFF1F73
:1037E80070B5FFF7A9FF094D002420460C21484376
:1037F800295C002907D040194068002800D080477C
:10380800641C0A2CF1DB002070BD0000985EFF1FCD
:1038180070B50546164800240078012811D0042800
:103828000FD0FEF7C5F80021124A0B4608460C26B1
:103838007043165C002E0FD0AE4205D1801843703D
:1038480007E0FEF7C3F90DE080184078002800D0A3
:10385800641C491C0A29E9DB002C05D0FEF7B6F9DF
:10386800FEF7ACF8002070BDFEF7C0F8F8E70000DE
:10387800C44DFF1F985EFF1F70B5194801218907C5
:1038880042688A60826801231A434A6115490A6BB3
:103898000261496B416100210420FEF7EFFF01211D
:1038A8001420FEF7EBFF01211520FEF7E7FF0121A9
:1038B8001720FEF7E3FF0C4D002420460C21484357
:1038C800295C002909D040198068002800D0804769
:1038D800641C0A2CF1DB002070BD122070BD0000B2
:1038E800C44DFF1F80F00040985EFF1F1CB51849AB
:1038F8000F20087017480124047017490020087029
:103908001648C16B490949010931C163C16B60227D
:1039180091432031C16300F027F800210420FEF70D
:1039280069FF01211420FEF765FF01211520FEF72C
:1039380061FF01211720FEF75DFF0520009003239A
:103948000122074901940748FEF746F91CBD00000B
:10395800480AFF1F490AFF1F680AFF1F80F000403E
:10396800184EFF1FA85AFF1F10B5FFF7C5F810BD66
:1039780070B540251C4C012802D0002811D027E042
:103988006069052140014009C90640186061E06985
:103998001649084016494018E061E0692843E0618B
:1039A80016E000210A20FFF7C7FC00210B20FFF7D3
:1039B800C3FCE069032109020843E061E069A84308
:1039C800E06160690B214001400909074018606106
:1039D80060690121090708436061A069032149045E
:1039E8008843A06170BD000000F000407F00FEFF2A
:1039F80080FD010010B5064AD160906000F00CF817
:103A0800044A00211320FFF7CDFE002010BD00005E
:103A1800A84DFF1F213AFF1FF8B50025184800954B
:103A2800426800782B460121FEF7DCF81649154854
:103A380088630120154980040860BFF34F8FBFF3E6
:103A48006F8F13480168FF22120402269143B205C2
:103A580011430160642000904120FFF78DFA402057
:103A6800FFF78AFA740766620098411E0091FBD23C
:103A780003206062FFF75CFAA562FFF749FBF8BD17
:103A8800B04DFF1F050001FF00C8004080E100E0C5
:103A980010E400E07047000070B50D460446282980
:103AA80010D1A420005BE188401A0B4980B28842FB
:103AB80008D321466A3105220E46481FFEF768F8EA
:103AC800002804D029462046FEF792F870BD3146FA
:103AD8002046FEF793F870BDFF7F000010B500295F
:103AE80001D0FEF791F810BD70B5264D264E286816
:103AF800002804D0FEF78EF82978C84004E0FEF7C5
:103B080089F83168FEF78CF804462868002804D044
:103B1800FEF78CF82978C84004E0FEF787F831688A
:103B2800FEF77EF81949A122897892005143184A74
:103B3800184B126889180D78174A002D17D0FF31D5
:103B4800FF3102314C6C1548641C4C64006899685C
:103B5800884201D3401A02E0114B591A0818D2388A
:103B68001060012C02D1FF30F530106070BDFF31BC
:103B7800FF31002502314D645968201AC968401880
:103B8800F3E700001C08FF1F1808FF1F300DFF1F78
:103B98003409FF1FE04DFF1FA009FF1F9C09FF1FED
:103BA800FFFF3F00F3B506466548A12180788900EC
:103BB8004843644983B00968A12244182046FF306D
:103BC80021305F4900908978920051435D4A407DD9
:103BD800126800258F18FF37813732281DD0222818
:103BE8001BD0F86A0168002909D08188001D090ADC
:103BF800891CFEF721F8F96A002001250860FEF704
:103C080021F804992746FF370880C137387C0028F7
:103C180021D0B0421FDC002014E04B49012008608D
:103C28000020F96A01250860E9E780000019FF30E3
:103C38008130006B8188001D090A891CFDF7FCFF93
:103C48000198401C0190397C8142EEDCC8B2361ADA
:103C58004519002038743D490020C870FF20AD3058
:103C680000590168002903D00079C04380071ED09D
:103C78000098C07D00281AD00098807D002816D1B1
:103C8800387CB04213DAFF204930005B010A204635
:103C9800FF304930891CFDF7CFFF00990020C87517
:103CA80000980121817529486D1CC170761E387CE9
:103CB800002802D0284605B0F0BD2046FDF7C8FF11
:103CC8000090002821DD002E1FDD002718E0204687
:103CD800FDF7C4FF80000019FF300130C06E8188F5
:103CE800001D090A891CFDF7A7FF2046FDF7BCFF48
:103CF800E01DFF30FA30016A6D1C491C7F1C01620F
:103D08000098874201DAB742E1DB092080012018D8
:103D1800817E002911D0017D00290ED0428E002A13
:103D28000BD0817F914202D2491C817705E00021A6
:103D380081771A212046FDF79DFFA8B2BBE7000056
:103D4800300DFF1F3409FF1F00140340E010FF1F50
:103D5800F8B550480068012803D14F48816D491CC7
:103D68008165FDF761FE4D4C4D49A0604D484161AC
:103D78000125C56005602078002806D006224A493A
:103D88004A48FDF74BFE002020704949486B494AD4
:103D9800C0B21278002A17D1474A0023D356002B05
:103DA800464BD35606DB1B040026965732029A1858
:103DB800121808E0FF331B040026965732029A189F
:103DC8003F4B1218D2184A63022801D2022002E09F
:103DD800502800D950203B4A1278022A11D03A4A7A
:103DE80016783A4B1F78BE420FD916781B78F31A0B
:103DF800801E4010434310784001C01A1030401113
:103E080004E0334A1678334BECE710784A69120A13
:103E1800120210434861FDF731FE0646052801D01D
:103E2800042E1ED12C480078002806D02B48007894
:103E3800002802D00020FDF723FF2948A12180781F
:103E480089004843274909684018FF30FF3002308D
:103E5800007B042801D0032803D1FF205F30FDF741
:103E68004FFE022E0ED120480078012807D00328E3
:103E780005D0022803D01D480078022802D16C2002
:103E8800FDF73EFE1A48C582094840380068E060E0
:103E9800F8BD00009809FF1FFC0FFF1FE04DFF1F32
:103EA800FF3F000000100340D50BFF1F7211FF1FDA
:103EB800800003408C09FF1F680AFF1F00000000F4
:103EC800FFFE0000490AFF1F440AFF1F450AFF1FA3
:103ED800460AFF1F470AFF1FF908FF1F2209FF1F95
:103EE800300DFF1F3409FF1F1C09FF1F2309FF1F87
:103EF800BC0BFF1F10B504490968002901D0884789
:103F080010BDFDF7E5FD10BD8002FF1F10B5044987
:103F18008968002901D0884710BDFDF7D9FD10BD7B
:103F28008002FF1F10B504494968002901D088475D
:103F380010BDFDF7CDFD10BD8002FF1F10B504496F
:103F48000969002901D0884710BDFDF7C1FD10BDE2
:103F58008002FF1F10B50449C968002901D08847AD
:103F680010BDFDF7B5FD10BD8002FF1F70B50F4CE9
:103F7800012020700E4D2870FDF788FEFDF7C8FF60
:103F8800FFF7B4FCFFF78AFB2078FDF785FE287859
:103F9800FFF7EEFCFFF7E0FB064903C9FFF72AFD30
:103FA800FFF73EF900F0B0FC002070BD4A0AFF1F81
:103FB800944DFF1F384CFF1F70470000F8B50A4D9D
:103FC800A84201D00620F8BD0848FEF7EFFF0126F9
:103FD800002436030F273F036019FEF7E7FFA419F3
:103FE800BC42F9DB0020F8BD0010011100300011BF
:103FF800F8B51E484168090601D50020F8BD41689A
:10400800802211434160194D0A260027803DE86946
:1040180040084000E8610620FDF7F4FC134CC03C62
:10402800A06980210843A061E86901210843E8618B
:1040380002E00820FDF7E6FCA86A800504D43046B3
:10404800761EF6B20028F4D1002E07D0286A7E2109
:10405800C70BA0690F4088433843A061A16980203D
:104068008143A1613806400EF8BD0000C0F0004051
:1040780010B500F0A5FA044A0121582000F010FA02
:10408800FFF7B6FF10BD0000600AFF1F30B53848C3
:10409800016801229204114301604168032212065B
:1040A8009143344A13781B0619434160436803213E
:1040B80089058B4330490C78A40523434360436842
:1040C8006024234343601378022B08D01378012B14
:1040D80005D00B78022B02D00B78012B04D1436852
:1040E800FF240134234343601278032A02D00A785C
:1040F800032A03D1426880231A434260426803239B
:104108009B041A4342600B780122D2051B48002BFE
:1041180003D11B4B1B78032B19D0C3689343C3608F
:10412800164A184B4032D360FF2581351561164C6D
:104138005461164B9361114B80335D609C60144C45
:10414800DC60144B03600978002903D006E0C368DB
:104158001343E4E701680123194301600E49097814
:104168000E4BC906C90BC91881630D48D06130BD13
:1041780040F000404C0AFF1F4B0AFF1F800003401D
:104188004A0AFF1FC00B00207A3E6A070000890414
:1041980000808904CC240000480AFF1F250800007D
:1041A8002FFCA601F8B505004A484B4B4B4C4C4A2E
:1041B8004C4934D0022D32D08615571006628669D4
:1041C8009E43B31883612078002833D00F61464896
:1041D8000863464800780122120380184861414E5E
:1041E800404C434B803E403C002D27D06521414A3E
:1041F800C9024148012D2ED0022D31D0032D5AD0AD
:10420800042D58D03D49691831603D49A1602360AB
:10421800E06002210846FDF745FD3A482BE080267C
:10422800066286699E430123DB04F61886612078BE
:10423800002801D00A61CAE70B61C8E7324830603C
:104248000020A06023603148E06003210846FDF7A4
:1042580029FD2F480FE02F4B3360A2602160D7E77C
:104268002C4B5B1C3360A2602160E0600221084691
:10427800FDF718FD28482061F068FF210843F06029
:10428800264860612648A0612648E06126482062E9
:10429800264860622648A0622648E06226482063D5
:1042A80026486063E020012D0DD02168022D0ED034
:1042B80081432160F8BD224BEB183360214B7360BA
:1042C8002160A260A4E7216881432031F1E781439E
:1042D8004031EEE7C000034000001C004B0AFF1FFE
:1042E800000004008000034003000001440AFF1F8F
:1042F80000280B0055555537D6BE898E00800642DA
:1043080055555500805508220080067807EE753609
:10431800806608220180063D80450822A49C5C54E2
:104328004C44434241524C46403A342E28007F5573
:104338004F49433D37312B4C46403A342E28221CF6
:1043480000800698545A9850F0B5224B214D2149C7
:104358008026204A0727BF04403BC03DE02480391F
:1043680002281662966914D0BE430127BF04F619C5
:104378009661194A1278002A1ED07A101A6101280B
:104388001ED0164A80182860154808610868A0439E
:1043980014E00120BE43C004361896610E4A127814
:1043A800002A00D0401018610E4828600E480861A5
:1043B8000868A043403001E01F61E0E70860F0BDF5
:1043C8000848401E2860094808610868A043203052
:1043D800F4E70000C00003404B0AFF1F0080069866
:1043E800805508220280063D804508228066082202
:1043F80010B50A4900200870094902200870FFF723
:1044080045FE0848007800F011F8074C2078FFF7BF
:10441800C9FE2078FDF74CFC10BD00004B0AFF1FB9
:104428004C0AFF1F480AFF1F490AFF1FF0B51A4A26
:1044380003230725D60019499B026024ED0157691B
:104448003F281AD0B74305263604BE195661CA68F4
:104458009A43CB14D218CA60CA69A2432032CA61EF
:10446800CA69AA43CA610D4940398A6BC006120558
:10447800120DC00B02438A63F0BDB7430126B60490
:10448800BE195661CA689A43CA60CA69A243CA611A
:10449800CA69AA438032E5E700F00040C000034043
:1044A800F8B53A4B5D6A9C6A00265E629E62384B9C
:1044B80058630E2018629E155E6240209862502054
:1044C800D862FF202B30586231484030012915D07E
:1044D800802101622F49FF232D48A5334030836096
:1044E8002D4B43602A4B2D48403B18617D20C0006E
:1044F8000090471E009705D33846FAE7066225491B
:104508008331E8E7264889050F1821484038876332
:10451800234B5B1CC918816322480090224800780D
:104528000300FDF7CBFB05040408060D08001F482F
:1045380000E01F4800901F4810601548403005E013
:104548001D48F7E7C16AC943890F14D000994B1E6B
:104558000093F7D20E4940398F630D4900228A62D1
:10456800CA6282604E620A62FF2041304862074890
:1045780045628462F8BDC16A104B19401160116828
:104588000122090C120489184160E3E70010034076
:1045980080000340CA0200002020000080560C2042
:1045A80064652100102700004A0AFF1F204E000002
:1045B8003075000000002020409C0000FFFF3F3FB6
:1045C80000B50021022000F021F80C49801C087079
:1045D8000021422000F01AF80949801C08700121C6
:1045E800022000F013F80749801C087001214220BE
:1045F80000F00CF80449801C087000BD440AFF1F35
:10460800450AFF1F460AFF1F470AFF1FF8B53B4C24
:10461800394A2260394D394A07239B048035403294
:104628000129A9690ED0994301239B04C918A961DE
:104638003349D16033490B780121C905324E002B2B
:1046480007D009E099430123DB04C918A9612F4960
:10465800EFE73378032B14D0D3688B43D3605063D0
:104668000E20106200275762FF201530506228483C
:10467800009030780300FDF721FB0507070D090BB3
:104688000D00D3680B43E9E7224802E0224800E026
:10469800224800900098431E0093FBD2686B576233
:1046A8000002000E17621E4BD360FF234133536292
:1046B8006523DB0223601B4D2F78E023012F0AD0EE
:1046C8002D78022D25680AD09D4325600D4B1B7857
:1046D800002B07D009E025689D432035F5E79D4369
:1046E8004035F2E73378032B03D0D3688B43D3608C
:1046F800F8BDD3680B43FAE71000030040000340FD
:104708007F4073004B0AFF1F4A0AFF1F7F40530078
:1047180010270000204E000030750000409C00006B
:1047280040401000490AFF1FF0B5002589B0074630
:104738002E46012421E0394821010818102205A934
:1047480000F0C4F836480599079A0818354900F06A
:10475800BDF834490020079A0AF098FE089981426A
:104768000AD0002000902D4804226946103800F035
:10477800C3F80A2009B0F0BD641CBC42DBD32A4848
:10478800FFF71CFC002428E0244821010818102207
:1047980005A900F09BF822480599079A08182149AD
:1047A80000F094F80698000E11282DD01E481D49D7
:1047B8002818079A00F0A0F8002C08DD1B493001E2
:1047C8004018102205A9059500F096F8761C079860
:1047D8002D1D40198508AD00641CBC42D4D30024AB
:1047E800601E089011480694102205A905960794A2
:1047F800103800F081F809480422694610380094FE
:1048080000F07AF80020B5E70799069800F04EF80E
:104818000449079A069800F06FF8DDE71050051173
:104828000060051100B3FF1F0010011110300011C6
:1048380030B58FB0002468460894194D04710422DD
:104848006946284600F042F8164801686846FDF7B0
:104858003BFA002802D004200FB030BD10480422D3
:1048680008A9001D00F032F80898801E1F280AD2F7
:104878000B48102209A9103000F028F80A980A49B4
:10488800000C884207D004220DA928460D9400F098
:1048980033F80A20E0E70898FFF746FF0020DBE737
:1048A80000500511984DFF1FFFFF000070B5040B65
:1048B800451824030126360303E02046FEF776FB5D
:1048C800A419AC42F9D3002070BD000070B5094DA1
:1048D80002230E462B605C0763620121A162014638
:1048E8003046FDF7F7F90020286003216162A062D5
:1048F80070BD000000C0004010B5830701D00C2037
:1049080010BDFEF7AFFB10BDFFF792FF0AF0C8FE1F
:10491800FEE70000F8B5614C60688030806880F37D
:104928000888FDF7B3F95E485E49006802258842A9
:1049380006D00020FDF720F968070169A943016145
:1049480000F0D6F858480078FDF7B2F9574E002025
:10495800F061F561564D75610120FDF753F80320AC
:10496800F061FDF703F90746FDF75EF80646FDF727
:10497800FDF850490860FFF73BFD4F480068874243
:1049880001D9381A01E0381A401E4C49884200D92A
:10499800084061688A8DD20709D0494A030C126819
:1049A80080B2534350431B02000A18180BE0C2019F
:1049B8008300D21A4300D21AC3001818921C803000
:1049C8009208400A10182062FF313E4801314968B8
:1049D800006809183C480068081A41198B083B48C8
:1049E8008A073B4903600D68920F52190A60042A2E
:1049F80004D95B1C9207920F03600A60216A354F45
:104A0800C8183946FDF70CF902463348334D036898
:104A1800D31803602A688A182A60BA4206D95B1C30
:104A2800036039461046FDF7FBF82960FDF758F991
:104A38002B480078002810D0FCF7F6FF294A216A95
:104A4800801B12680B18934202D2511A091A01E00E
:104A58007D21C9001548FDF749F9234D287A00281A
:104A680011D0FCF7E1FF811B236A1048EA685C1843
:104A78003C30A24202D9D21A511A00E01B49FDF774
:104A880035F900202872FDF737F90220FCF7EAFF14
:104A98000020FDF771F8FDF735F9F8BDE04DFF1F6F
:104AA8000C0AFF1FB6412103490AFF1F00100040EE
:104AB800C4090000100AFF1F340AFF1FFFFF3F0050
:104AC800380AFF1F1C0AFF1F200AFF1F240AFF1FA6
:104AD800280AFF1F710200006008FF1F2C0AFF1F31
:104AE8001C09FF1FE408FF1F740BFF1FDC050000F3
:104AF800F8B5FEF7BFF9FDF7F3FE0120404E009030
:104B08003078404C022810D0FDF730F805463220A6
:104B1800FCF778FFFEF732F80F20FCF773FF3078C8
:104B2800012808D0FEF7D6F81AE037484068006A2E
:104B3800FCF768FF24E033484038C06B4007400F5B
:104B4800012802D10020FDF7A7F86068FF27013788
:104B5800B84360600220FCF755FF60683843606026
:104B6800FDF704F8A84201D3401B01E0401B401E9A
:104B780025491E22C8615043244A49688018C861E3
:104B8800244923480860234823498030C163FF2112
:104B9800413141623078FDF77FF820492048FDF720
:104BA800A5F81F481F491430FDF7A0F80420FDF7A9
:104BB80003FE1420FDF700FE1520FDF7FDFD17206C
:104BC800FDF7FAFDFF20FDF75BF80120FDF7A0F8DF
:104BD800FF20F530FDF7A2F85820FCF791FF1248A6
:104BE800FDF7A2F80098FDF7A5F80720FDF7A8F84B
:104BF800E0690E490840FF300930E061F8BD000067
:104C08004A0AFF1F40F00040E04DFF1F72060000F7
:104C18000180063D000003403408000071020000D6
:104C280014100040FFFF3F003075000000FEFEFF3B
:104C3800000000003B000108020003000502060214
:104C48000703080309030A000C030D03000301030B
:104C580004030B000E030F031003110312031303C5
:104C680014031503160300000000000000000000F4
:104C78000001020307090A0B0E0F1011121417186E
:104C8800191A1B1F20212200020100050400080731
:104C9800000B0A001716001D1C0102010105040182
:104CA8000E0D011110011413011716011A19020231
:104CB80001020B0A020E0D0211100214130217163C
:104CC800030504030807030B0A030E0D000D000E6D
:104CD800001000110013001401070108010A010B5C
:104CE800011C011D02040205020702080219021A2A
:104CF800021C021D03010302031700000300000049
:104D08000000000000000000405441460000000080
:104D18004F544146000000005048592B363258582D
:104D2800504C555330353034000000000004FF1F4C
:104D3800184EFF1F0C000000C828FF1F184EFF1F49
:104D48000004FF1F000400007C19FF1F00B3FF1FB1
:104D5800184EFF1F84000000C828FF1F184EFF1FB1
:104D680000B3FF1F104000007C19FF1F184EFF1FE3
:104D7800184EFF1F28110000D828FF1FFCF6FF1F40
:104D8800FCF6FF1F04040000D828FF1F00000000E5
:104D9800184DFF1F104DFF1F00000000000000000D
:104DA8000000000000000000040000003B000108B3
:104DB80000000000000000000000080001000000E2
:104DC800882108005902E0010000000000000000EE
:104DD8000000000040787D01000000000000000095
:104DE80000000000000000000000000000000000BB
:104DF800010000000000000000000000204DFF1F1F
:104E0800000000000000000000000000000000009A
:020000041FFFDC
:10B3000001FF01FF01FF01FF01FF01FF01FF01FF3D
:10B3100001FF01FF01FF01FF01FF01FF01FF01FF2D
:10B3200001FF01FF01FF01FF01FF01FF01FF01FF1D
:10B3300001FF01FF01FF01FF01FF01FF01FF01FF0D
:10B3400001FF01FF01FF01FF01FF01FF01FF01FFFD
:10B3500001FF01FF01FF01FF01FF01FF01FF01FFED
:10B3600001FF01FF01FF01FF01FF01FF01FF01FFDD
:10B3700001FF01FF01FF01FF01FF01FF01FF01FFCD
:04B380000191000037
:020000041FFFDC
:10F4000003B40148019001BD3953010003B4014820
:10F41000019001BD1D530100FEB504460D46164680
:10F420001F462B4622460349034801970096FFF7E3
:10F43000E7FFFEBD30280011305FFF1FFEB5044618
:10F440000D4616461F462B462246034903480197A0
:10F450000096FFF7DBFFFEBD30280011305FFF1F75
:10F4600072B606480168491C01600549042008601D
:10F470000020012189074860FEE700007808FF1F8F
:10F48000C0F0004010B5F3F705FD002800D110BD15
:10F490000120FCE770B515E003070D78DC0E744B16
:10F4A000060928071C5BC00E185A66407040040706
:10F4B000E40E1E5B040928094000185A744060409D
:10F4C000491C521E002AE7D170BDF0B501239B07ED
:10F4D0009D6A04460C431443A40701D00C20F0BDE0
:10F4E000644C654E0C19B44201D31020F0BD634E3C
:10F4F000002D04D1022434605C6201249C6200244B
:10F5000002E00F59241D80C09442FAD3002D04D18B
:10F51000002030600321596298620020F0BDF0B5F0
:10F5200089B000205349049007900422494204A85E
:10F53000FFF7CBFF0498411C62D020280DD800288B
:10F540000BD004224E4907A8FFF7BFFF07980228F7
:10F5500006D0012806D0002804D0682009B0F0BDEC
:10F56000484E00E0484EFFF78DFF08906420009061
:10F57000411E009101D30846FAE73D480422434961
:10F58000001FFFF7A2FF3A4C0125183C6AE03C48F7
:10F590002F01001F3918364804221838FFF795FF4D
:10F5A00037480422391832481438FFF78EFF3448A0
:10F5B0000422001D39182E481038FFF786FF304806
:10F5C0000422083039182A480C38FFF77EFF2068DB
:10F5D000411C15D06368591C12D0A1684A1C0FD079
:10F5E000E268521C0CD0834213D1089A002A09D039
:10F5F0001F4B0022083BFFF70FFF2169E0682EE058
:10F600006720ABE7224A636993422AD00A46014643
:10F610001FE0204F1A0CBA4223D0089A002A0CD0BF
:10F62000134A80190C3AFFF709FF002819D01A492C
:10F6300002204863FFF714FF13E080190A460146D1
:10F640001846FFF742FF12486169814209D0A2685B
:10F6500061680020FFF71EFF2061A18989B2814205
:10F66000E5D16D1C0498401C854290D3002075E7BD
:10F67000DCF6FF1F00D0FFEEFFCF070000C0004008
:10F6800004300011CB08AF3200100111F03F00111F
:10F690005A5AA5A5FFFF000000F00040014841684C
:10F6A000084700003818FF1F10B5F2F785F9FFF77B
:10F6B00036FF002801D1FFF7F1FFF2F783F90020B0
:10F6C00010BD00000000000000000000000000006D
:10F6D000000000000000000000000000000001CC5D
:10F6E00001D8001401F0003C002801E401A0006CE6
:0CF6F000007801B40050019C0188004427
:040000051FFF18F9C8
:00000001FF
